{
  "contractName": "TestgroundGame",
  "abi": [
    {
      "inputs": [],
      "name": "cats",
      "outputs": [
        {
          "internalType": "uint256",
          "name": "",
          "type": "uint256"
        }
      ],
      "stateMutability": "view",
      "type": "function",
      "constant": true
    },
    {
      "inputs": [],
      "name": "dogs",
      "outputs": [
        {
          "internalType": "uint256",
          "name": "",
          "type": "uint256"
        }
      ],
      "stateMutability": "view",
      "type": "function",
      "constant": true
    },
    {
      "inputs": [],
      "name": "voteDogs",
      "outputs": [],
      "stateMutability": "nonpayable",
      "type": "function"
    },
    {
      "inputs": [],
      "name": "voteCats",
      "outputs": [],
      "stateMutability": "nonpayable",
      "type": "function"
    }
  ],
  "bytecode": "0x608060405260008055600060015534801561001957600080fd5b506101d2806100296000396000f3fe608060405234801561001057600080fd5b506004361061004c5760003560e01c8063765487ac14610051578063d290377b1461006f578063e8f9307314610079578063f34e242614610083575b600080fd5b6100596100a1565b60405161006691906100f2565b60405180910390f35b6100776100a7565b005b6100816100c2565b005b61008b6100dd565b60405161009891906100f2565b60405180910390f35b60015481565b60016000808282546100b9919061010d565b92505081905550565b60018060008282546100d4919061010d565b92505081905550565b60005481565b6100ec81610163565b82525050565b600060208201905061010760008301846100e3565b92915050565b600061011882610163565b915061012383610163565b9250827fffffffffffffffffffffffffffffffffffffffffffffffffffffffffffffffff038211156101585761015761016d565b5b828201905092915050565b6000819050919050565b7f4e487b7100000000000000000000000000000000000000000000000000000000600052601160045260246000fdfea2646970667358221220eedad2f72cef9e587b9c51be0f86b16cb65e285ff776c3edef5fe38ad9bd332664736f6c63430008000033",
  "immutableReferences": {},
  "source": "// SPDX-License-Identifier: MIT\npragma solidity 0.8.0;\n\ncontract TestgroundGame {\n  uint256 public dogs = 0;\n  uint256 public cats = 0;\n\n  function voteDogs() public {\n    dogs+=1;\n  }\n\n  function voteCats() public {\n    cats+=1;\n  }\n}",
  "sourcePath": "/home/turupawn/Projects/Blockchain/Games/Gatos/contracts/TestgroundGame.sol",
  "compiler": {
    "name": "solc",
    "version": "0.8.0+commit.c7dfd78e.Emscripten.clang"
  },
  "schemaVersion": "3.4.0",
  "updatedAt": "2021-05-14T06:59:02.399Z",
  "networkType": "ethereum",
  "devdoc": {
    "kind": "dev",
    "methods": {},
    "version": 1
  },
  "userdoc": {
    "kind": "user",
    "methods": {},
    "version": 1
  }
}